:020000040800F2
:10000000B80B0020CD010008A530000871270008BA
:10001000A1300008C90B00084937000800000000A3
:100020000000000000000000000000009135000802
:10003000CD0B0008000000004D3500089535000884
:10004000E7010008E7010008E7010008E7010008F0
:10005000E7010008E7010008E7010008E7010008E0
:10006000E7010008E7010008E7010008E7010008D0
:10007000E7010008E7010008E7010008E7010008C0
:10008000E7010008E7010008E7010008E7010008B0
:10009000E7010008E7010008E7010008E7010008A0
:1000A000E7010008E7010008E7010008E701000890
:1000B000E7010008E701000800000000E701000870
:1000C000E70100080000000000000000E701000850
:1000D00000000000C5360008E7010008000000002D
:1000E000E7010008E7010008E701000800F002F856
:1000F00000F05DF814A696E8000CB244B344DA456B
:1001000001D100F054F8BAE80F000FA696E83000CD
:10011000A5EB040504EB0607AAEB0704A7F101070A
:100120004FEA15154FEA3414A4F10104AC4201D38F
:1001300000F03DF813F0010F18BFFB1A43F0010364
:1001400000F001F8DBE7184754580000745800002D
:10015000103A24BF78C878C1FAD8520724BF30C8F3
:1001600030C144BF04680C60704700007047000055
:100170000023002400250026103A28BF78C1FBD8B0
:10018000520728BF30C148BF0B607047662904F092
:100190008D87002070471FB500F048FB0400002049
:1001A000002104F051FAE0601FBD10B510BD00F051
:1001B0003DFC1146FFF7EFFF03F072FC00F05BFC23
:1001C00003B4FFF7F2FF03BC00F09EFC0948804730
:1001D00009480047FEE7FEE7FEE7FEE7FEE7FEE729
:1001E000FEE7FEE7FEE7FEE704480549054A064B41
:1001F00070470000B5350008ED000008B805002084
:10020000B80B0020B8070020B80700200FB41CB5B9
:10021000074B06AA7B4469460090059800F0EDFA6A
:100220000020694600F0FCFA1CBC5DF814FB0000DD
:10023000090600002DE9F0474FF0000A8946044600
:10024000C0F820A02046E1688847002876D02528FD
:1002500006D0D4E901219047206A401C2062F1E7D2
:10026000E168204600258847C4F81CA00646002700
:10027000C4F818A02A2E09D0304604F0DDF938B3AE
:1002800004EB8708303EC8F8186019E059F8041BE1
:10029000204604EB87029161E1688847012F0646FA
:1002A00018D1E069002820DA25F020051DE0D8F8F3
:1002B000180000EB800006EB40003038C8F818004A
:1002C0002046E1688847064604F0B6F90028EED1DA
:1002D000012F0AD02E2E08D12046E16888477F1CC6
:1002E0000646022F45F02005C4DBA069002803DA8A
:1002F000404245F00105A061E80701D025F0100556
:10030000B6B1A6F14100192802D8203645F400659F
:100310004A463146204625604D46FFF737FF58B123
:10032000012806D0ED1D25F0070000F1080989E736
:1003300004E005F1040985E730468AE7206ABDE854
:10034000F08710B5431C02E010F8011B71B1810762
:10035000FAD14FF0013202C88C1A8C4314EAC21150
:10036000F9D0C01A0A0603D0C01E10BDC01A10BDB5
:100370000A0401D0801E10BD0902FCD0401E10BD31
:100380004FF0000200B5134694469646203922BF2E
:10039000A0E80C50A0E80C50B1F12001BFF4F7AF79
:1003A000090728BFA0E80C5048BF0CC05DF804EB5B
:1003B000890028BF40F8042B08BF704748BF20F8C9
:1003C000022B11F0804F18BF00F8012B70477047C7
:1003D000704770472DE9FF4F0C461E464FF0FF3720
:1003E0008BB0D2E90001DDF860800A908A46C1F343
:1003F0000A5505B93D46002108464FF00000BAF104
:10040000000F00F4400005DA00EB80004FF44001DB
:1004100001EA50004FEA9059B9F1010F00DDB946E9
:100420000A9850EA4A000ED044F61050A5F2FF3563
:1004300045432F14B8F1000F1ED07542291E1EDD52
:10044000C9F100021CE0B8F1010F4FF0000001D02B
:10045000302103E0F24305E02154401CB042FBDBB5
:1004600030460022002121540B99C1F80880C1E9CF
:1004700000200FB0BDE8F08FBD1B6D1CDEE74A46C3
:1004800000DA694206A800F05BFA06AB93E80700C1
:1004900003AB83E8070050460A9903F0F1FC8DE8AE
:1004A0000700A0F500501F3800900398002D0ADDCA
:1004B00042F21F014A460844002303A903906846FC
:1004C00003F05AFF09E0A0F500504A461F38002308
:1004D00003A90390684603F064FF8DE80700000459
:1004E000000C03D04FF0FF30410800E01046B8F197
:1004F000000F03D00022009215461EE0751E05D4A1
:1005000000F098F9303262556D1EF9D5B3460122DC
:10051000084302D000227F1C04E02078302801D15B
:1005200000227F1E002A099784D01DE0112D07DAD2
:1005300000F080F9303262556D1C50EA0102F5D1AD
:10054000084302D00098C8B10EE00021681E05E003
:10055000235C625C63542254401E491C8142F7DBD9
:10056000AB46A81B401E0990002004F80B000B9816
:10057000099AC0F80880C0E9002B7AE711264FF0ED
:10058000000857E72DE9F04F88460446D21D22F0B7
:10059000070191B0D1E90001CDE90A0104F038F872
:1005A00002460B98C00F01D02D2007E0206881077C
:1005B00001D52B2002E0202101EAC000032A099086
:1005C00001D0072A05DB03464146204600F078F9B2
:1005D0000BE12078800601D5E06900E00620B8F143
:1005E000650F814606D0B8F1660F18D0B8F1670FD5
:1005F00070D131E00020B9F1110F009001DB11231F
:1006000001E009F101030AAA01A90CA8FFF7E2FE23
:10061000DDE90C70002609F10105834647E0012061
:100620004B4600904FF000470AAA01A90CA8FFF71B
:10063000D1FEDDE90DB00C995D46002610B909F137
:1006400001000D18B9EB050003D4C0F1FF3609F124
:100650000105A5EB09002BE0B9F1010F01DA4FF01C
:1006600001090020B9F1110F0090484601DD112366
:1006700000E003460AAA01A90CA8FFF7ABFEDDE9DA
:100680000C704D4600268346207800070AD4AB45FF
:1006900000DA5D4601A8012D04DD411911F8011CA5
:1006A000302907D04F4502DA17F1040F04DA012090
:1006B00082460FE06D1EEEE7002F02DCED1B3E448C
:1006C00003E0781CA84200DD7D1CB81B00F1010A84
:1006D0004FF000472078000703D4AA4501DB4FF014
:1006E000FF3A0021B7F1004F0DF143088DF8431098
:1006F00024D002202B23002F01DA7F422D230A2150
:10070000021EA0F1010000DC5FB197FBF1FC97FB3A
:10071000F1F201FB1C7C17460CF1300C08F801CDFE
:10072000EEE7A8F1010003702188090501D54521F4
:1007300000E06521A0F1010800F8011C09980FA94B
:10074000A1EB0807FF1D00B10120411901EBEA7080
:10075000A1693844081A401EA0612078C00602D45E
:100760002046AFF30080099828B1D4E901219047D1
:10077000206A401C20622078C00622D52046AFF3B4
:1007800000801EE0002E04DBB34502DD01A8805D81
:1007900000E03020D4E901219047206A401C20620B
:1007A000761CAAF101005FEA000A0AD100F03EF8C7
:1007B000C0680168405CD4E901219047206A401C70
:1007C0002062281EA5F10105DCDC07E0D4E9012147
:1007D00018F8010B9047206A401C2062381EA7F1D0
:1007E0000107F3DC2046AFF30080032011B041E69F
:1007F00001694A1C02610878704700B58FB0CDE9E5
:1008000001310021059105497944CDE903101146D4
:100810006846FFF70FFD0FB000BD0000E5FFFFFFCA
:100820000A6802F8010B0A60704700000048704730
:100830005800002030B5B0F10A0271F100034FEA10
:10084000900E4EEA817EB0EB0E0061EB91014FEA13
:10085000101E4EEA017E10EB0E0041EB11114FEA23
:10086000102E4EEA016E10EB0E0041EB11214FEA03
:10087000104E4EEA014E10EB0E0041EB11414018B4
:1008800041F100014FEAD00040EA41704FEAD10146
:100890004FEA810444EA907410EB800544EB0104B4
:1008A0006D1944EB0404521BA3414FF0000348BFF1
:1008B0000A3200D530BD401C41F1000130BD0000BE
:1008C0002DE9F0411F46044603260168072A01F47A
:1008D000006004DB08B116A505E016A503E008B129
:1008E00015A500E015A521F010002060A069C01E2C
:1008F000A0610FB1401EA0612046AFF300804FB150
:10090000D4E9012138469047206A401C2062C01C6F
:10091000206206E0206AFAE7D4E9012115F8010B0C
:100920009047761EF8D22046AFF30080BDE8F081F4
:100930004E414E006E616E00494E4600696E660083
:100940002DE9F047814616468AB0354878440DC8EF
:100950008DE80D0032487844801C03AC0DC884E853
:100960000D0041F69B300844372190FBF1F290FBDB
:10097000F1F5A5F1800501FB12041B3C02D5644290
:10098000012000E00020DFF898A080460027FA440C
:10099000AAF1BE0A0EE0E0070AD03246684607EB2D
:1009A000470101230AEB810103F0FBFC8DE80700FE
:1009B00064107F1C002CEED1194F7F44AE3F19E02C
:1009C000E80715D007EB04100DF1180A90E80E00A7
:1009D0008AE80E00C068F04201D1981908903246AA
:1009E000012306A903A803F0DCFC03AB83E807009E
:1009F0006D10641C002DE3D14FF0010332466946AF
:100A0000B8F1000F03A802D003F0B6FC01E003F038
:100A1000C8FCC9E90001C9F808200AB0BDE8F087A0
:100A2000DC47000000487047380000207546FFF79B
:100A3000F9FFAE4605006946534620F0070085469B
:100A400018B020B5FFF7D0FBBDE820404FF00006FE
:100A50004FF000074FF000084FF0000BAC46ACE839
:100A6000C009ACE8C009ACE8C009ACE8C00921F095
:100A700007018D46704710B50446AFF3008020464D
:100A8000BDE81040FFF79CBB4FF0013C50F8042B31
:100A900051F8043B9A4221D1A2EB0C03934313EA91
:100AA000CC1317D150F8042B51F8043B9A4215D1BE
:100AB000A2EB0C03934313EACC130BD150F8042B95
:100AC00051F8043B9A4209D1A2EB0C03934313EA79
:100AD000CC13DBD04FF00000704700BFD01A01BA32
:100AE000B1FA81F101F0180122FA01F0CB40DBB23A
:100AF000C0B2C01AC1F120012CFA01F3D11A9143FE
:100B000011EAC311E6D1704701491820ABBEFEE7D8
:100B10002600020070470000B0B582B004460020F5
:100B2000019021688A68D2074BD1886840F00100A3
:100B3000886040F23400C2F2000000684DF6836124
:100B4000C4F21B31A0FB0101880C01900198A0B1F7
:100B5000019801380190019878B10198013801900D
:100B6000019850B1019801380190019828B101987D
:100B70000138019001980028EAD100F0BBFB216800
:100B80008968C9071CD1054603E000BF8068C0071B
:100B900016D100F0AFFB411B20680329F6D3816812
:100BA000C907F3D1A06A40F01000A062E06A40F0EB
:100BB0000100E062002084F82400012002B0B0BDF2
:100BC000002002B0B0BD0000FEE70000704700004A
:100BD000EFF3108072B600BFFEE7000070B581B081
:100BE0000022009290F82420012A03D10221084615
:100BF00001B070BD4A680123062A02EB820E80F81C
:100C0000243007D8D0F800C06FF004030CF134068C
:100C10000CE000BFD0F800C00C2A87BF0CF12C06F6
:100C20006FF040030CF130066FF022030EEB03026D
:100C30001F23346803FA02F50B6824EA050503FA5A
:100C400002F22A433260092B03EB43021AD9DCF883
:100C50000C601E3A072589689540AE43914023F009
:100C600001023143102ACCF80C1015D142F2004198
:100C7000C4F201018C4517D0816A41F020018162E4
:100C800001210AE0DCF81030072689689640B3435A
:100C900091401943CCF810100021002280F8242044
:100CA000084601B070BD00BF89680902F4D4DCF8C1
:100CB0000810102B41F40001CCF80810ECD140F2E0
:100CC0003401C2F2000109684DF68362C4F21B329E
:100CD000A1FB0212910C01EB8101490000910099E6
:100CE0000029D9D000990139009100990029D3D069
:100CF00000990139009100990029CDD0009901395E
:100D0000009100990029C7D00099013900910099FC
:100D100000294FF00001E5D1BFE700000068C06C7A
:100D200070470000002804BF01207047B0B504469A
:100D3000806A28B121688868C0070CD115E000BF1F
:100D40000020E06284F82400204600F097F8216833
:100D50008868C00709D0886820F00100886000F02A
:100D6000C9FA21688A68D20726D1A06AC0063AD497
:100D7000A06A41F2021290430230A062E069D4E915
:100D8000013240EA030C531EB3FA83F35D091346A4
:100D9000B2F5807F18BF2B02207D257B01284CEA0D
:100DA00045002CD135B3A56A45F02005A562E56A5A
:100DB00045F00105E56222E0054602E08868C007CB
:100DC000D3D000F097FA401B21680328F6D3886837
:100DD000C007F3D0A06A40F01000A062E06A40F0C3
:100DE0000100E062A06AA06A40F01000A062012049
:100DF000B0BD00BFA56903EB4533A3F5C0534D68F3
:100E0000B2F5807F25F4694543EA05034B608B68A2
:100E10004FF2FD75CFF6E17503EA050343EA0003DF
:100E20008B6001D0012A07D122690023CFF6F0732D
:100E300003EB025201E000BF0022CB6A23F47003EF
:100E40001A43CA62896840F6FE62CFF61F721140EB
:100E5000814207D10020E062A16A012262F3010110
:100E6000A162B0BDA06A40F0100020F00200A062B4
:100E7000E06A40F00100E0620120B0BD80B586B0BC
:100E8000014640F60000C4F20100096800F5E05296
:100E900091424FF00001CDE90411CDE9021101D0DA
:100EA00006B080BD41F21801C4F202010A6842F4A2
:100EB00000720A600A6802F400720192019A0A68DC
:100EC00042F004020A60096801F0040101910199ED
:100ED000802102910321039102A900F0FFF806B0DE
:100EE00080BD000010B5044690F82400012804BF1E
:100EF000022010BD012084F824002046FFF70CFEDC
:100F000020B1002084F82400012010BD42F2044CDE
:100F10002068A16AC4F2010C40F2013291430CF541
:100F20007F7201F580719042A16229D0A16A21F4FB
:100F30008011A1624168490504D5A16A012363F3C8
:100F40000D31A162A16A0023C9044FF0000144BF22
:100F5000E16A21F00601E1626FF0020184F82430B9
:100F60000160816801F46021B1F5602F1BD19042CE
:100F700014D0816841F4A0018160002010BD00BF41
:100F8000DCF8001011F4702FD0D0A16A41F4801168
:100F9000A162DCF800104905CFD4D3E7DCF80010DB
:100FA00011F4702FE5D0816841F480118160002038
:100FB00010BD0000014690F82100022816D10868F3
:100FC000D1E90FC3026822F00E020260026822F02B
:100FD00001020260012000FA03F2CCF8042081F83B
:100FE00021000020002281F820207047042088631F
:100FF0000120002281F820207047000090F8211085
:10100000022923D1026840F2040C1168C4F2020CD8
:1010100021F00E01116013682F21C4F202018A42EF
:1010200023F00103136015DD3023C4F202039A425A
:101030001CD04423C4F202039A421BD05823C4F2AA
:1010400002039A421CD14FF4803321E004218163D2
:10105000012070470823C4F202039A420ED01C23D9
:10106000C4F202039A420BD1102311E04FF48073B3
:101070000EE000BF4FF480530AE000BF012307E0F9
:101080000CF168014FF080738A4208BF4FF480135F
:101090000121CCF8003080F82110416B002200299A
:1010A00080F8202004BF0020704780B588470020CA
:1010B00080BD0000B0B5044600F01CF9054640F2C2
:1010C0000000C2F200000078611C18BF044400BF99
:1010D00000F010F9401BA042FAD3B0BD2DE9F04F4B
:1010E00082B00E68002E00F0F58041F20002C4F2DA
:1010F0000102032340F2004E904208BF02234FF644
:10110000FF7CC4F2010E009300240123C1F2100CF5
:101110004FF0000B4FF0000944E000BF002704F03F
:101120000C030F229A402AEA020207FA03F34FEA5D
:101130009B051A4346F825204E6840F20C45F20202
:10114000DEF8082054BF22EA080242EA0802C4F28C
:101150000105CEF808202A68B30254BF22EA08022B
:1011600042EA08022A60B303DEF8042054BF22EAF0
:10117000080242EA0802F303CEF80420DEF8002059
:101180004FF0010354BF22EA080242EA0802CEF8F7
:1011900000200E680BF1010B36FA0BF204F1040487
:1011A00000F0988003FA0BFA16EA0A08F1D04E68AC
:1011B000664511DC122E55D8DFE806F0340A4C489B
:1011C0005454545454545454545454545444500047
:1011D000D1F80C9046E000BF4FF6FF72C1F2210239
:1011E00096420FDC0022C1F2110296421AD0002270
:1011F000C1F21202964215D00022C1F2210296429B
:1012000010D02FE00022C1F2220296420AD0002222
:10121000C1F23102964205D00022C1F2320296425A
:1012200020D100BF8A684AB1012A14BFC0F814A0B7
:10123000C0F810A04FF0080914E000BF4FF00409F7
:1012400010E000BFCA6802F104090BE04FF000098A
:1012500008E000BFCA6802F1080903E0CA6802F1A9
:101260000C0900BF02462646B8F5807F24BF043231
:10127000203E17680F25B54027EA050509FA06F64E
:1012800035431560CA79D2067FF583AF41F2180362
:10129000C4F202031A68AEF57E7642F001021A60CB
:1012A0001A6802F001020192019A2BF0030256F82B
:1012B00002A040F60002C4F2010290423FF42EAFB9
:1012C00040F60042C4F20102009F904208BF01278D
:1012D00025E700BF02B0BDE8F08F0000806808403D
:1012E00018BF012070470000002A08BF09040161EF
:1012F0007047000040F2B450C2F20000006870472E
:10130000002804BF01207047F0B581B0044690F872
:101310003D0028B9002084F83C00204600F050F938
:10132000242084F83D002068016821F0010101605B
:10133000016841F400410160016821F4004101604D
:1013400000F094FB636848F2A16CC0F2010C40F617
:101350000011C0F23D0163453CBF48F28041C0F23C
:101360001E01884202D2012001B0F0BD4DF683611A
:10137000C4F21B31A0FB01122168970CD1F804E0E4
:101380004FF496762EF03F0545EA92454D6077433F
:1013900048F638160D6AC0F24106A7FB067625F01E
:1013A0003F07634538BF960C721C3A430A62CA690C
:1013B00048F2A0664CF6FF77C0F20106B34222EA7B
:1013C00007020BD801385B00B0FBF3F001306FF37C
:1013D0001F30042898BF04201BE000BFA768013815
:1013E00057B119277B43B0FBF3F001306FF31F3087
:1013F00070B100F5804007E003EB4303B0FBF3F06E
:1014000001306FF31F3018B100F5004001E000BF5C
:1014100001201043C8610868D4E9072320F0C00008
:10142000104318430860886848F2FF3204F10C0743
:1014300090438CCF18431043A6698860C86820F099
:10144000FF0038433043C860086840F0010008607E
:1014500000202021206484F83D10206384F83E00A1
:1014600001B0F0BD2DE9F04383B0994616460F4612
:101470000446FFF73FFF94F83D10202924D105468C
:10148000206800BF816989071AD5FFF733FF411B28
:1014900020681A29F6D381698907F3D50020202115
:1014A000206384F83D1084F83E00216C41F0200157
:1014B000216484F83C00022003B0BDE8F08300BF43
:1014C00094F83C10012903D1022003B0BDE8F08359
:1014D000012284F83C200368DDE90B180A9ADB0737
:1014E00003D1036843F001030360036823F400633E
:1014F0000360212084F83D00402084F83E00002055
:10150000206462626185608D394620850020CFF6B7
:10151000FF70E062204632464B46CDE9008501F07F
:1015200029F918B1012003B0BDE8F083208D98B9E6
:10153000204641462A4601F075FA88B3206C0428FB
:10154000F0D12068016841F400710160012003B00E
:10155000BDE8F0830004EBD0204641462A4601F066
:1015600011FC0028EAD1616A2268084610F8013BA4
:101570001361238D6062581E2085678D013F67854A
:1015800057697F07E6D50704E4D048781061881CC6
:101590006062981E2085618D01396185DAE700BFA0
:1015A0002068016841F400710160202084F83D004A
:1015B000002084F83E0084F83C0003B0BDE8F083CE
:1015C00010B586B0006845F20042C4F20002002166
:1015D00090420591CDE90311029101D006B010BDF2
:1015E00041F21804C4F20204206840F008002060B0
:1015F000206800F00800019001984FF440700290BC
:101600001220CDE903010320059040F60040C4F20A
:10161000010002A9FFF762FD0420C4F20100016885
:1016200041F0E06141F002010160606840F40010A7
:101630006060606800F400100190019806B010BD71
:1016400040F2000040F2B451C2F20000C2F20001C8
:1016500000780A68104408607047000080B542F2C4
:101660000000C4F20200016841F010010160032093
:1016700000F08CF80F2000F005F800F027F80020AB
:1016800080BD000070B540F20006C2F2000640F2D4
:1016900034013278C2F200014FF47A730968B3FB67
:1016A000F2F20446B1FBF2F1084600F007FC0F2C01
:1016B0004FF0010508D838B94FF0FF30214600221D
:1016C000002500F037F87460284670BD82B041F202
:1016D0001800C4F202000168022241F00101016019
:1016E000016801F0010101910199416841F08051C7
:1016F0004160406800F08050009000980420C4F2DF
:101700000100016862F31A61016002B070470000D5
:10171000002848BF704700F01F01012202FA01F1C2
:101720001C2202EAD0004EF20012CEF200028150DA
:101730007047000010B54EF60C5CCEF2000CDCF8E1
:101740000030C3F3022E8EF00704042C28BF0424BB
:10175000BEF103034FF0FF3E0EFA04F438BF00233E
:10176000A14399400EFA03F39A43114300F00F028C
:1017700000F160430901043A03F564436244002820
:1017800048BF02F10C03197010BD00004EF60C5159
:10179000CEF200010A684FF6FF031A4060F30A22F6
:1017A00042F0806040F0FD70086070472DE9F04124
:1017B00082B00446007841F21C06C007C4F202065B
:1017C0004AD030685FEAC00808D4306840F08050E2
:1017D0003060306800F080500190019847F20007B7
:1017E000C4F200073868C00512D4386840F480702D
:1017F0003860FFF77FFD05463868C00508D4FFF75D
:1018000079FD401B6428F7D9032002B0BDE8F081C0
:10181000706810F4407012D0616801F44071884221
:101820000DD0706840F24042C4F24222012320F4FD
:10183000407113600023C0071360716026D1706887
:10184000616820F440700843B8F1000F706003D461
:10185000306820F0805030602068810707D556F846
:10186000181CA26821F44041114346F8181CC00618
:1018700007D556F8180CE16820F48000084346F8B4
:10188000180C002002B0BDE8F08100BFFFF732FD68
:10189000054641F2883700BF70688007CFD4FFF754
:1018A00029FD401BB8424FF00300F5D9EAE70000DC
:1018B000002804BF012070472DE9F04381B042F2B7
:1018C0000008C4F202080446D8F800000D4600F0F3
:1018D000070081420CD9D8F8000020F00700284307
:1018E000C8F80000D8F8000000F00700A8426CD14A
:1018F000206841F204098107C4F2020917D54107A3
:1019000005D5D9F8001041F4E061C9F800100107CD
:1019100005D5D9F8001041F46051C9F80010D9F884
:101920000010A26821F0F0011143C9F80010C007AF
:1019300042D1D8F8000000F0070085420CD2D8F858
:10194000000020F007002843C8F80000D8F8000085
:1019500000F00700A84238D12068410707D5D9F820
:101960000010E26821F4E0611143C9F8001000079B
:1019700008D5D9F80000216920F4605040EAC10080
:10198000C9F80000D9F8002002F00C00082841F244
:101990000020C0F27A004DD145F66613C2F38341B0
:1019A000C0F60003595CD20338D440F60010C0F2F0
:1019B0003D0048433EE000BF606859F8041C02281F
:1019C00008D0012826D1890306D4012001B0BDE842
:1019D000F08300BF8901F8D5D9F8001021F0030188
:1019E0000843C9F80000FFF785FC064641F2883736
:1019F000D9F80000616800F00C00B0EB810F98D0BE
:101A0000FFF778FC801BB842F2D9032001B0BDE893
:101A1000F08300BF8907D8D5DEE700BFD9F80020E2
:101A200045F66413C2F34042C0F600039A5C484393
:101A3000B0FBF2F0D9F8001045F24412C1F30311E3
:101A4000C0F60002515C40F2340220FA01F140F28B
:101A50000400C2F200000068C2F200021160FFF749
:101A600011FE002001B0BDE8F083000040F2340018
:101A700041F20401C2F20000C4F2020100680968E8
:101A800045F25412C1F30221C0F60002515CC84075
:101A90007047000040F2340041F20401C2F200003D
:101AA000C4F202010068096845F25412C1F3C22170
:101AB000C0F60002515CC84070470000002804BF17
:101AC000012070472DE9F04182B00446007841F2D0
:101AD0000006C007C4F202060CD0706800F00C00CB
:101AE000042840F081803068800303D560680028B6
:101AF00000F04681207880071BD5706810F00C0F2D
:101B000009D0706800F00C00082840F087807068E9
:101B1000C00300F183803068800703D52069012865
:101B200040F02E813068616920F0F80040EAC10081
:101B300030602078000713D4207840072CD4E56962
:101B4000002D00F01881706800F00C00082840F0AB
:101B5000A780012D40F00481012002B0BDE8F08192
:101B6000A069002800F084800020C4F242200121F6
:101B7000C0F88014FFF7BEFB054600BF706A8007FF
:101B800000F1B280FFF7B6FB401B0228F6D9032014
:101B900002B0BDE8F08100BFF0695FEAC00808D478
:101BA000F06940F08050F061F06900F080500090E2
:101BB000009847F20007C4F200073868C00549D40E
:101BC000386840F480703860FFF794FB054600BF2A
:101BD0003868C0053ED4FFF78DFB401B6428F7D959
:101BE000032002B0BDE8F081706800F00C00082806
:101BF00003D17068C0033FF576AF61683068002993
:101C000000F00C81B1F5A02F00F00081B1F5803F0C
:101C100040F01A8140F480301CE100BF20690028A8
:101C200040F20000C4F2422000F0888001210160EF
:101C3000FFF760FB054600BF306880073FF572AFD5
:101C4000FFF758FB401B0228F6D9032002B0BDE87D
:101C5000F08100BFE168306A002900F09D8005290D
:101C600000F09280012940F0AF8040F00100B1E027
:101C70000020C4F242200021C0F88014FFF73AFB94
:101C8000054600BF706A80077FF556AFFFF732FB4D
:101C9000401B0228F6D9032002B0BDE8F08100BF46
:101CA0000027C4F2422700203866FFF723FB022DED
:101CB00005460DD13068800140F1DE80FFF71AFB48
:101CC000401B02284FF00300F4D902B0BDE8F081B8
:101CD000306880014FD5FFF70DFB401B02284FF005
:101CE0000300F5D9F1E700BF40F23400C2F2000072
:101CF000006844F6D351C1F26201A0FB0101480A19
:101D0000019000BF00BF0198411E002801913FF4DF
:101D100013AF00BF0198411E002801913FF40CAFA2
:101D200000BF0198411E002801913FF405AF00BF9C
:101D30000198411E00280191E4D1FDE600210160D7
:101D4000FFF7D8FA054600BF306880077FF5F1AE8F
:101D5000FFF7D0FA401B02284FF00300F4D9B4E794
:101D60007068216A00F480328A4209D1616A00F405
:101D70007010884204D1002002B0BDE8F08100BF9D
:101D8000012002B0BDE8F08140F004003062306A0A
:101D900040F001001EE000BF20F001003062306A18
:101DA00020F004003062FFF7A5FA054641F28837BB
:101DB000306A800720D5FFF79DFA401BB8424FF0EC
:101DC0000300F5D981E700BF20F001003062306ADE
:101DD00020F004003062FFF78DFA054641F28837A3
:101DE000306A800708D4FFF785FA401BB842F7D95C
:101DF000032002B0BDE8F081B8F1000F3FF59FAEBF
:101E0000F06920F08050F06199E600BF40F4802036
:101E10003060306840F480301CE000BF20F4803037
:101E20003060306820F480203060FFF763FA0546A8
:101E3000306880037FF55EAEFFF75CFA401B6428D4
:101E40004FF00300F4D940E720F480303060306870
:101E500020F480203060FFF74DFA0546306880039B
:101E60003FF548AEFFF746FA401B6428F6D9032039
:101E700002B0BDE8F08100BF206AB0F5803F05D117
:101E80007168A26821F40031114371607168626A5F
:101E900021F4741111430843706001203866FFF784
:101EA00029FA0446306880013FF565AFFFF722FA52
:101EB000001B02284FF00300F4D906E7411E002062
:101EC000B0EB116F1CBF012070474EF21002CEF232
:101ED000000251604EF62351CEF20001F0230B7048
:101EE0000721906011607047704700007047000044
:101EF000B0B582B001680A68CC684B6902F02F0562
:101F0000202D04F0200505D125B102B0BDE8B04078
:101F100001F058BB5FEA027C1EBF03F0010E04F41F
:101F2000907313EB0E0341D1036BD50618D5012B2B
:101F300016D114F0100313D0002201920A68019206
:101F40004A680192019A496949064BD4818DC28D34
:101F5000C38D002B18BF914240F0F48102B0B0BD98
:101F600013062DD514F080032AD090F84120212AA1
:101F7000F4D18268B2F5805F03D10269002A00F0D3
:101F80006782026A531C036212784A60C28C013A6B
:101F90001304C284E2D1C86820F08000C860C86819
:101FA00040F04000C86002B0B0BD00BFD30718BF0A
:101FB00014F4807340F0D080530700F1D380D8E050
:101FC0005206CBD514F04002C8D0CA6822F04002B5
:101FD000CA60202180F8411002B0BDE8B04000F096
:101FE000C5BB00BFC16B0A68526893B2002BB5D065
:101FF000858DAB42B2D2C2858969202900F0A180CB
:10200000016851E8031F026821F4807142E803135C
:10201000DBB1016851E8031F026821F4807142E8D6
:10202000031393B1016851E8031F026821F4807122
:1020300042E803134BB1016851E8031F026821F421
:10204000807142E80313002BDAD1016851E8051FC3
:10205000026821F0010142E80513C3B3016851E8A9
:10206000051F026821F0010142E805137BB30168F6
:1020700051E8051F026821F0010142E8051333B35E
:10208000016851E8051F026821F0010142E80513CB
:10209000002BDAD11BE000BF016851E8051F026880
:1020A00021F0400142E80513DBB1016851E8051F4A
:1020B000026821F0400142E8051393B1016851E83C
:1020C000051F026821F0400142E805134BB1016889
:1020D00051E8051F026821F0400142E80513002B7A
:1020E000DAD1202180F8421000210163016851E813
:1020F000031F026821F0100142E80313DBB10168FD
:1021000051E8031F026821F0100142E8031393B164
:10211000016851E8031F026821F0100142E803132F
:102120004BB1016851E8031F026821F0100142E839
:102130000313002BDAD1C16B04460846FEF73AFFC1
:10214000204602214163818DC28D891A89B202B075
:10215000BDE8B040FFF7C8BE436C43F001034364E1
:10216000530706D5BEF1000F03D0436C43F00203C2
:102170004364930706D5BEF1000F03D0436C43F0D0
:1021800004034364BCF1000F06D55EEA050303D0E7
:10219000436C43F008034364436C002B3FF4DEAE12
:1021A000920605D525B1044601F00CFA21682046B7
:1021B0004969426C01F0400102F00802891800F000
:1021C000B98000BF016851E8031F026821F49071D3
:1021D00042E80313BBB3016851E8031F026821F40E
:1021E000907142E8031373B3016851E8031F02685A
:1021F00021F4907142E803132BB3016851E8031FE7
:10220000026821F4907142E80313002BDAD11AE03E
:10221000016851E8051F026821F0010142E8051339
:10222000DBB1016851E8051F026821F0010142E8B5
:10223000051393B1016851E8051F026821F00101FF
:1022400042E805134BB1016851E8051F026821F00F
:10225000010142E80513002BDAD1016B012924D1D9
:10226000016851E8031F026821F0100142E80313DE
:10227000DBB1016851E8031F026821F0100142E858
:10228000031393B1016851E8031F026821F01001A4
:1022900042E803134BB1016851E8031F026821F0C3
:1022A000100142E80313002BDAD1202180F84210FC
:1022B0000021016301684969490640F1C380016852
:1022C00051E8051F026821F0400142E80513DBB127
:1022D000016851E8051F026821F0400142E805133A
:1022E00093B1016851E8051F026821F0400142E8FE
:1022F00005134BB1016851E8051F026821F0400148
:1023000042E80513002BDAD1C16B002900F09A8056
:1023100043F2B952C0F60002044608464A63FEF78B
:102320006DFE00283FF41AAEE06B416B02B0BDE8D1
:10233000B04008470446FFF7D9FD0020606402B0B2
:10234000B0BD00BF891A00BF026852E8032F0368BE
:1023500022F4907243E80325BDB3026852E8032FCC
:10236000036822F4907243E8032575B3026852E8CB
:10237000032F036822F4907243E803252DB302680B
:1023800052E8032F036822F4907243E80325002DDE
:10239000DAD11AE0026852E8052F036822F0010240
:1023A00043E80525DDB1026852E8052F036822F0F5
:1023B000010243E8052595B1026852E8052F03683C
:1023C00022F0010243E805254DB1026852E8052FCD
:1023D000036822F0010243E80525002DDAD120220E
:1023E00080F8422000220263026852E8032F03684B
:1023F00022F0100243E80325DDB1026852E8032F02
:10240000036822F0100243E8032595B1026852E800
:10241000032F036822F0100243E803254DB1026840
:1024200052E8032F036822F0100243E80325002D31
:10243000DAD1022289B2426302B0BDE8B040FFF7B0
:1024400053BD00BF02B0BDE8B040FFF74FBD00BFB5
:10245000026A32F8023B6FF35F234B60026295E53C
:10246000002804BF0120704710B5044690F84100D1
:1024700028B9002084F84000204600F063F82420AA
:1024800084F841002068D4E90212C36823F40053A1
:10249000C360036923F440531A430261D4E904235F
:1024A0001143C268194341F20C639A431143C1605E
:1024B0004169A26921F44071114343F60002C4F25C
:1024C00001029042416103D0FFF7D0FA02E000BF61
:1024D000FFF7E0FAD4E90023192148439900B0FB43
:1024E000F1F048F21F5CC5F2EB1CA0FB0C314FF67B
:1024F0009C734909C0F6FF7301FB0300322303EB11
:102500000010A0FB0C03F02000EA531000EB0110B8
:10251000C3F34311084490601069202120F49040D7
:102520001061506920F02A005061D06840F40050DA
:10253000D0600020606484F8411084F84210606329
:1025400010BD000070B586B040F60004C4F201046E
:10255000006804F54051002688420596CDE90366DF
:10256000029601D006B070BD41F21800C4F202001C
:10257000016802AD41F480410160016801F48041CD
:1025800001910199016841F0040101600068294648
:1025900000F00400019001984FF4007002900220B6
:1025A0000390032005902046FEF798FD4FF48060CD
:1025B000CDE90206204629460496FEF78FFD252028
:1025C00000210022FFF7B6F82520FFF7A1F806B09A
:1025D00070BD0000704700002DE9F04381B0044653
:1025E00090F84100202809D100294FF0010018BFC0
:1025F000002A07D101B0BDE8F08300BF022001B07E
:10260000BDE8F0830020606421201D460E4684F85A
:1026100041001746FEF76EFEA784E784A168814655
:10262000B1F5805F02D1206900285DD037460020D7
:10263000E28C2168002A5DD06A1C24D0002D4AD08B
:10264000804600BF0868000608D4FEF753FEA0EBE2
:102650000900A8427AD82168C868F3E717B117F8CB
:10266000010B04E038F8020B00276FF35F2048608D
:10267000E08C0138E084E08C0028E3D13AE000BF30
:102680000A68120609D40A68120606D40A681206F5
:102690005CBF0A685FEA0262F2D51FB117F8012B2E
:1026A00005E000BF30F8022B00276FF35F224A607D
:1026B000E28C013AE284E28C002AE4D11AE000BF05
:1026C00030F8022B00276FF35F224A60E28C013A58
:1026D000E284E28C72B10A68120635D5002FEFD081
:1026E00017F8012BF1E700BF00273046E28C216884
:1026F000002AA1D1086840061ED42DB3681C14D14D
:10270000086840062AD40868400627D408684006AE
:1027100024D4086840064FF00000F1D50DE000BF5A
:102720002068C1680068400618D4FEF7E3FDA0EBFE
:102730000900A842F4D909E00020202184F84110C2
:1027400001B0BDE8F08300BFFEF7D4FD03202021D7
:1027500084F8411001B0BDE8F08300BF00202021C3
:1027600084F8411001B0BDE8F0830000704700001C
:10277000FEE700002DE9F04383B0044600680F46F1
:1027800001680A9D0B9E41F4807199469046016054
:1027900020464FF0011100222B46009600F0A0F9D0
:1027A00050B120680068C00544BF4FF40070206439
:1027B000032003B0BDE8F083206807F0FE0101614B
:1027C0000221C0F2010120462A46334600F06EFA8B
:1027D00020B1012003B0BDE8F08300BF00200290CB
:1027E0002068324641690291806929460290029828
:1027F000204600F0C7FA58B1206C0428E9D12068BF
:10280000016841F400710160012003B0BDE8F0836C
:102810002068B9F1010F0AD04FEA18210161204662
:102820002946324600F0AEFA0028E5D120685FFA6A
:1028300088F10161002003B0BDE8F083B0B540F637
:102840000044C4F201040546C20920460821FEF7EF
:102850004BFD204610210122FEF746FD0120FEF728
:1028600029FC204610210022FEF73EFDC5F3801210
:1028700020460821FEF738FD204610210122FEF7F0
:1028800033FD0120FEF716FC204610210022FEF742
:102890002BFDC5F3401220460821FEF725FD2046FA
:1028A00010210122FEF720FD0120FEF703FC204647
:1028B00010210022FEF718FDC5F300122046082162
:1028C000FEF712FD204610210122FEF70DFD01202A
:1028D000FEF7F0FB204610210022FEF705FDC5F3B0
:1028E000C00220460821FEF7FFFC204610210122ED
:1028F000FEF7FAFC0120FEF7DDFB20461021002246
:10290000FEF7F2FCC5F3800220460821FEF7ECFC3E
:10291000204610210122FEF7E7FC0120FEF7CAFB4A
:10292000204610210022FEF7DFFCC5F340022046BE
:102930000821FEF7D9FC204610210122FEF7D4FC25
:102940000120FEF7B7FB204610210022FEF7CCFC49
:1029500005F0010220460821FEF7C6FC20461021A2
:102960000122FEF7C1FC0120FEF7A4FB2046102146
:102970000022FEF7B9FC204608210122FEF7B4FC34
:10298000204610210122FEF7AFFC0120FEF792FB4A
:1029900020460821FEF7A2FC204610210022BDE8B7
:1029A000B040FEF7A1BC000010B540F60044C4F2F0
:1029B0000104204608210122FEF796FC2046102142
:1029C0000122FEF791FC0120FEF774FB204608214E
:1029D0000022FEF789FC0120FEF76CFB2046102147
:1029E0000022BDE81040FEF77FBC000010B540F6A5
:1029F0000044C4F20104204608210022FEF774FCC2
:102A0000204610210122FEF76FFC0120FEF752FB49
:102A1000204608210122FEF767FC0120BDE8104096
:102A2000FEF748BB70B50368044653F8140F40071F
:102A300011D40E46481C29D086BB00BF186840053B
:102A400027D4FEF757FC236853F8140F400737D5F7
:102A500018684007F2D5002070BD00BF1868400715
:102A6000F9D41868400514D418684007F3D41868DE
:102A700040050ED418684007EDD41868400508D406
:102A8000186840074FF0000048BF70BD1868400547
:102A9000E4D56FF480601860042012E0154603E06E
:102AA00053F8140F4007D6D418684005F1D4FEF748
:102AB00021FC401B2368B042F2D958694007EFD48B
:102AC000202000212022216384F83D2084F83E103C
:102AD000226C10432064012084F83C1070BD00007B
:102AE0002DE9F041054600681E46144601F47F02B8
:102AF00001338FB242D0DDF81880B2F5803F40F04C
:102B0000878040693840C01BB0FA80F04009844299
:102B100040F0C8804EB924E040693840C01BB0FA8C
:102B200080F04009844240F0BD80FEF7E3FBA0EB5B
:102B300008012868B142EFD941693940C91BB1FA8F
:102B400081F149098C42E7D19BE000BF40693840E0
:102B5000C01BB0FA80F0400984424FF0000040F002
:102B6000A280FEF7C7FB286841693940C91BB1FA4A
:102B700081F149098C42E9D183E000BFB2F5803F81
:102B800024D100BF41693940C91BB1FA81F149091B
:102B90008C4240F0878041693940C91BB1FA81F10C
:102BA00049098C4240F07E8041693940C91BB1FA25
:102BB00081F149098C4275D141693940C91BB1FA8B
:102BC00081F149098C42DDD06CE000BF8169394058
:102BD000C91BB1FA81F149098C4263D1816939403D
:102BE000C91BB1FA81F149098C425BD18169394035
:102BF000C91BB1FA81F149098C4253D1816939402D
:102C0000C91BB1FA81F149098C42DFD04AE000BF0B
:102C100080693840C01BB0FA80F04009844241D13D
:102C200046B923E080693840C01BB0FA80F0400903
:102C3000844237D1FEF75EFBA0EB08012868B14261
:102C4000F0D981693940C91BB1FA81F149098C4237
:102C5000E8D116E080693840C01BB0FA80F0400926
:102C600084424FF0000018BFBDE8F081FEF742FB40
:102C7000286881693940C91BB1FA81F149098C4240
:102C8000E8D100202021286385F83D1085F83E001A
:102C9000296C41F02001296485F83C000120BDE841
:102CA000F08100BF0020BDE8F0810000F0B581B0E8
:102CB000044600681D4643698FB203EA0701B94222
:102CC00002D1002001B0F0BD4169164601323CD06E
:102CD000490512D47EB300BFFEF70CFB411B2068F0
:102CE000B14203D941693940B9422BD141693940D8
:102CF000B942E6D041694905EED5016841F4007159
:102D000001606FF480614161042000212022216371
:102D100084F83D2084F83E10226C1043206484F82F
:102D20003C10012001B0F0BD41693940B942C8D022
:102D300041694905E1D4FEF7DDFA2068416939406F
:102D4000B942F1D02020E0E741694905D5D4416975
:102D50003940B942B5D041694905CED441693940BD
:102D6000B942AED041694905C7D441693940B94239
:102D7000A7D041694905C0D441693940B942E3D17E
:102D80009FE7000070B50368044653F8140F00066F
:102D900011D40E46481C29D086BB00BF18684005D8
:102DA00027D4FEF7A7FA236853F8140F000637D587
:102DB00018680006F2D5002070BD00BF1868000634
:102DC000F9D41868400514D418680006F3D41868BC
:102DD00040050ED418680006EDD41868400508D4E4
:102DE000186800064FF0000048BF70BD1868400525
:102DF000E4D56FF480601860042012E0154603E00B
:102E000053F8140F0006D6D418684005F1D4FEF725
:102E100071FA401B2368B042F2D958690006EFD41A
:102E2000202000212022216384F83D2084F83E10D8
:102E3000226C10432064012084F83C1070BD000017
:102E400040F29801C2F20001087800281CBF00225D
:102E50000A707047B0B540F29805C2F20005687874
:102E60000130C1B21429687038BFB0BD40F600040B
:102E7000A978C4F2010400206870E970204610218E
:102E8000FEF72CFAE0B120460421FEF727FAD8B16C
:102E900004F5006420464FF40041FEF71FFAB8B174
:102EA00020464FF40051FEF719FAB0FA80F14909B3
:102EB0008900A97018B1E878002818BF2870B0BD43
:102EC0000120A870B0BD00BF0220A870B0BD00BF37
:102ED0000320A870B0BD000010B540F6FF74A042FA
:102EE00038BF0446FFF760FDC020FFF7A7FC602055
:102EF000FFF7A4FC2009FFF7A1FC2001C0B2FFF7F7
:102F00009DFCFFF773FD1920BDE81040FEF7D2B815
:102F1000B0B584B040F2E80042F20041C2F20000D5
:102F2000C4F2010100244FF46022012504730475EA
:102F3000C261C0E9001484600561FDF7F3FE00285A
:102F400018BFFDF745FE0720CDE9010540F2E80076
:102F5000C2F2000001A90394FDF740FE002818BF4B
:102F6000FDF736FE04B0B0BD2DE9F04186B0002675
:102F700041F21800CDE90466CDE90266C4F2020010
:102F8000016840F6004441F0100101600168C4F29C
:102F9000010401F01001019101990168002241F042
:102FA0002001016001684FF0180801F02001019133
:102FB0000199016841F004010160016801F0040118
:102FC00001910199016841F0080101600068182130
:102FD00000F00800019001982046FEF785F94FF4B3
:102FE000204002ADCDE90206012704F580602946A4
:102FF0000497FEF773F8142002A9C1C1A4F58060FC
:103000002946FEF76BF80220059020462946CDE9B7
:1030100002870496FEF762F806B0BDE8F081000072
:1030200080B540F2181045F20041C2F20000C4F22F
:10303000000148F2A06200234FF4804CC0F201026C
:1030400080E80E00C0E9033CC0E90533C0E907335E
:10305000FEF756F9002808BF80BDBDE88040FDF7A7
:10306000B7BD000080B540F26C1043F60001C2F21B
:103070000000C4F2010100234FF00C0C4FF4165273
:1030800080E80E00C0E90333C0E905C3C361FFF760
:10309000E7F9002808BF80BDBDE88040FDF798BD76
:1030A000FEE70000FEE700002DE9F04F85B040F29A
:1030B000181400254FF480760127C2F200040DF1A8
:1030C000120B0DF113084FF0000900BF49F0B000DA
:1030D0008DF8100004A8CDE90007204678210022D1
:1030E00001230296FEF7BEF90DF11100CDE90007AC
:1030F00020467821002201238DF811500296FEF718
:10310000B1F910208DF81200204678210022012309
:10311000CDE900B70296FEF7A5F94FF0000A00BF0F
:1031200020467821402201238DF81350CDE90087F5
:103130000296FEF797F90AF101004FFA80FABAF108
:10314000FF3FEDDCB9F1070F09F10109BED305B06E
:10315000BDE8F08F80B5C820FDF7ACFFBDE880402A
:1031600000F0F4BA2DE9F04F89B047B2C0F3C010B7
:10317000203A01EB400427EAE7711027A4F1500040
:1031800047EA111601F00F05102BD7B240F030813D
:1031900040F2181B8DF818004FF0010806A8C2F283
:1031A000000B4FF4807CCDE90008584678210022BE
:1031B0000123CDF808C00594FEF754F90DF119006C
:1031C000CDE9000858467821002201234FF480748D
:1031D0008DF819600294FEF745F90DF11A00CDE95A
:1031E000000858467821002201238DF81A500294D5
:1031F0004FF48074FEF736F945F284313801C0F699
:103200000001085C01EB07178DF81B0004950DF118
:103210001B055846782140220123CDE9005802942D
:10322000FEF720F9787897F8029097F803A00396B4
:103230003E798DF81B005846782140220123CDE9C4
:1032400000580294FEF70EF95846782140220123D7
:103250008DF81B90CDE900580294FEF703F958460B
:103260007821402201238DF81BA0CDE9005802945B
:10327000FEF7F8F858467821402201238DF81B60AC
:10328000CDE900580294FEF7EDF8787978218DF8B1
:103290001B00584640220123CDE900580294FEF756
:1032A000E1F8B87978218DF81B00584640220123B7
:1032B000CDE900580294FEF7D5F8F87978218DF819
:1032C0001B00584640220123CDE900580294FEF726
:1032D000C9F8059878214F388DF81C0007A8CDE96A
:1032E00000085846002201230294FEF7BBF8039819
:1032F00078218DF81D000DF11D00CDE9000858461C
:10330000002201230294FEF7ADF8049878218DF88D
:103310001E000DF11E00CDE90008584600220123D1
:103320000294FEF79FF8387A0DF11F058DF81F0003
:103330005846782140220123CDE900580294FEF737
:1033400091F8787A78218DF81F00584640220123A1
:10335000CDE900580294FEF785F8B87A78218DF807
:103360001F00584640220123CDE900580294FEF781
:1033700079F8F87A78218DF81F0058464022012309
:10338000CDE900580294FEF76DF8387B78218DF86E
:103390001F00584640220123CDE900580294FEF751
:1033A00061F8787B78218DF81F0058464022012370
:1033B000CDE900580294FEF755F8B87B78218DF8D6
:1033C0001F00584640220123CDE900580294FEF721
:1033D00049F8F87BCDE900588DF81F005846782150
:1033E000402201230294FEF73DF809B0BDE8F08FBA
:1033F00040F2181B8DF820004FF0010908A8C2F216
:10340000000B4FF4807ACDE900095846782100225C
:103410000123CDF808A0FEF725F80DF12100CDE934
:10342000000958467821002201238DF82160CDF84B
:1034300008A0FEF717F80DF12200CDE90009584663
:103440007821002201238DF82250CDF808A0FEF744
:1034500009F845F25C1107EB4700C0F6000111F8CE
:10346000102001EB40078DF823200DF1230558466D
:10347000782140220123CDE90059CDF808A0FDF7BD
:10348000F1FF7878BE78FC7897F804808DF82300F7
:103490005846782140220123CDE90059CDF808A0F3
:1034A000FDF7E0FF58467821402201238DF8236084
:1034B000CDE90059CDF808A0FDF7D4FF5846782192
:1034C000402201238DF82340CDE90059CDF808A012
:1034D000FDF7C8FF58467821402201238DF823804C
:1034E000CDE90059CDF808A0FDF7BCFF7879782127
:1034F0008DF82300584640220123CDE90059CDF82C
:1035000008A0FDF7AFFF09B0BDE8F08F2DE9F0414D
:1035100015461278002A08BFBDE8F08198460E468D
:1035200007460024F8B2F1B2D2B24346FFF71AFEC2
:103530000837F8B201347828E0B288BF02362A5C36
:1035400088BF0027002AEDD1BDE8F0817047000058
:1035500080B540F20800C2F20000C168806840F205
:10356000A002C2F200024FF60063C2E90201C4F2F7
:10357000AF03002201F084FB0023C4F228030022E1
:1035800001F02CF901F0C2FABDE88040FFF7A4BCBD
:103590007047000080B5FEF753F8FFF75BFC40F280
:1035A0000A00C2F2000001888A087C2A9CBF01310F
:1035B000018080BD70470000406A0021C185C18440
:1035C000FEF794BC81B090F84210222921D1836883
:1035D0000246B3F5805F09D152F8281F52F8183C13
:1035E000002B63D003685B680AE000BF52F8281F15
:1035F00013B90369002BF5D003685B6803F07F0300
:103600000B70116801311160C18D01390A04C18547
:1036100002D001B0704700BF0168CA6822F02002E2
:10362000CA60CA6822F48072CA604A6922F0010244
:103630004A61202180F8421000214163026B012A77
:103640003CD10163016851E8031F026821F01001B9
:1036500042E80313DBB1016851E8031F026821F05F
:10366000100142E8031393B1016851E8031F026897
:1036700021F0100142E803134BB1016851E8031F28
:10368000026821F0100142E80313002BDAD101682F
:103690000A68D20606D5002200920A68009249689C
:1036A00000910099818D01B0FEF71EBC026852683E
:1036B0006FF35F2221F8022B8162A5E701B0FEF7CC
:1036C00089BF000040F26C10C2F20000006801687F
:1036D00089061AD540F2A402C2F20002D0F804C052
:1036E000138840F2FE318B420AD811884B1C13809C
:1036F00040F2B412C2F2000202F801C002E000BFC0
:10370000002111806FF0200101600168C90614D505
:1037100081B00021009101680091406800900098FC
:1037200040F2B410C2F20000007801B028B140F2BB
:10373000A000C2F200000121017040F26C10C2F240
:103740000000FEF7D5BB0000FEE70000F0B583B037
:1037500040F2181440F21807C2F200044FF48075CA
:103760000126C2F200072046782100220123CDE97C
:1037700000760295FDF776FE781CCDE9000620461E
:103780007821002201230295FDF76CFEB81CCDE9DB
:10379000000620467821002201230295FDF762FEF3
:1037A000F81CCDE90006204678210022012302956D
:1037B000FDF758FE381DCDE900062046782100228D
:1037C00001230295FDF74EFE781DCDE90006204647
:1037D0007821002201230295FDF744FEB81DCDE9B2
:1037E000000620467821002201230295FDF73AFECB
:1037F000F81DCDE90006204678210022012302951C
:10380000FDF730FE07F10800CDE9000620467821DB
:10381000002201230295FDF725FE07F10900CDE9FD
:10382000000620467821002201230295FDF71AFEAA
:1038300007F10A00CDE90006204678210022012385
:103840000295FDF70FFE07F10B00CDE900062046BB
:103850007821002201230295FDF704FE07F10C00F8
:10386000CDE9000620467821002201230295FDF7CC
:10387000F9FD07F10D00CDE9000620467821002270
:1038800001230295FDF7EEFD07F10E00CDE90006DC
:1038900020467821002201230295FDF7E3FD07F180
:1038A0000F00CDE900062046782100220123029571
:1038B000FDF7D8FD07F11000CDE90006204678217C
:1038C000002201230295FDF7CDFD07F11100CDE99E
:1038D000000620467821002201230295FDF7C2FD53
:1038E00007F11200CDE900062046782100220123CD
:1038F0000295FDF7B7FD07F11300CDE9000620465C
:103900007821002201230295FDF7ACFD07F1140098
:10391000CDE9000620467821002201230295FDF71B
:10392000A1FD07F11500CDE900062046782100220F
:1039300001230295FDF796FD07F11600CDE900067B
:1039400020467821002201230295FDF78BFD07F127
:103950001700CDE9000620467821002201230295B8
:10396000FDF780FD07F11800CDE90006204678211B
:10397000002201230295FDF775FD07F11900CDE93D
:10398000000620467821002201230295FDF76AFDFA
:1039900007F11A00CDE90006204678210022012314
:1039A0000295FDF75FFD03B0F0BD0000B0B540F239
:1039B0000804C2F200042078012818BFB0BD40F20C
:1039C000A000C2F20000C16880684FF60063C4F234
:1039D000AF030022002501F053F90023C4F22803AD
:1039E000002200F0FBFE01F091F8FFF775FA257058
:1039F000B0BD000010B5FFF723FA40F2A002411E4F
:103A0000C2F200020329907088BF10BDDFE801F008
:103A10000232182440F208040123C2F20004D4E95F
:103A20000201537049F69A1249F69913C9F6991290
:103A3000C3F6B97300F01EFEC4E9020110BD00BF59
:103A4000D2E9020140F20803C2F20003C3E9020115
:103A50000020507010BD00BF40F20800C2F200000C
:103A600001210170C368806800215170C2E902031E
:103A700010BD00BF40F208040123C2F20004D4E9E3
:103A80000201537049F69A1249F69913C9F6991230
:103A9000CBF6B97300F0EEFDC4E9020110BD0000E1
:103AA00094B0FDF7DBFD00240120CDE90F44CDE902
:103AB0000D440A900E904FF4E0104FF4803102252F
:103AC00013900AA80494CDE90244CDE90B14CDE982
:103AD0001151FDF7F3FF28B1EFF3108072B600BF6C
:103AE000FEE700BF0F20CDE905054FF48060CDE96A
:103AF000080405A802210794FDF7DAFE20B1EFF3D0
:103B0000108072B6FEE700BF022001904FF4004023
:103B1000039001A8FDF74AFE20B1EFF3108072B6C2
:103B2000FEE700BFFFF720FAFFF7F2F9FFF778FA98
:103B3000FFF798FA40F26C10C2F200000068C1680A
:103B400041F02001C160C16841F01001C160FFF780
:103B500001FBFFF7A9FAFFF7FBFC0BA200200021F5
:103B60001023FFF7D3FC4FF47A70FDF7A3FA00BFE0
:103B7000FFF740FF00F06EF800F0B8F800F00AF828
:103B8000FFF714FFF4E700BF496E697420537563B3
:103B900065737300F0B581B040F2080540F2A007EC
:103BA000C2F20005C2F20007D5E9022307F134048E
:103BB00020A12046FCF72AFB0020002122461023EA
:103BC000FFF7A4FC7878012817D16888B0F5FA7F50
:103BD00013D1002068804FF020303A4642F8340F6D
:103BE000C2E9010042F22000C0F22000C2F80B003E
:103BF000002000211023FFF789FCD7E90665002289
:103C000030462946002301F04AFA00281CBF00264E
:103C100000250CA1204632462B46C7E90665FCF775
:103C2000F5FA002003212246102301B0BDE8F04040
:103C3000FFF76CBC202020563A252E3166562020F6
:103C400000000000202020493A252E326641202025
:103C500000000000B0B540F2E804C2F200042046C3
:103C6000FDF740F92046FDF759F800F07EFF46F2D7
:103C70006663C4F20A034FF0663201F001F84FF6B2
:103C80000063C4F2AF030022002400F0A7FD40F25D
:103C9000A0050023C2F20005CCF204030022C5E90E
:103CA000040100F0E7FC44F2AE724AF61463C7F672
:103CB000E122C3F6C77300F091FD0023C3F6F4734D
:103CC0000022C5E9060101F0EAF9002818BFB0BDDD
:103CD00040F20800C2F20000C0E90244AC600020DB
:103CE000EC60BDE8B040FFF7F7B80000F0B581B078
:103CF00040F2A007C2F200073878012840F0B180F6
:103D000040F2B411C2F20001086846F27352C0F2E8
:103D10007402904224D07878012840F07F8048785F
:103D20002E282DD10878A0F13102082A6CD8897884
:103D3000A1F13004092C67D845F67811C0F60001CE
:103D400091E84C0007F1200CCD688CE84C000A8A01
:103D5000897C3038FD623A8687F8321031E000BF46
:103D6000414841A10E1D07F1200C4CCE8CE84D00BE
:103D7000087D0D6987F8340001203D63787057E0B5
:103D80008A782E2A40D1A0F13002022A3CD80A7843
:103D9000312A39D1C978A1F13004092C34D845F63B
:103DA0007811C0F6000191E84C0007F1200CCD68B5
:103DB0008CE84C000A8A897CFD623A8687F83210CA
:103DC000263800F0D2FE054620460E4600F0CDFE15
:103DD00049F69A1249F69913C9F69912C3F6B973BE
:103DE00000F04EFF2A46334600F044FC40F2080241
:103DF000C2F20002C2E90201C7E9020100207870A4
:103E00000120107014E000BFD7E9020140F208025F
:103E1000C2F20002C2E902010020787040F652505E
:103E200045F24521C0F20A00C4F65271C7E90810F4
:103E300007F120042046FCF784FA82B240F26C10AD
:103E4000C2F2000021466423FEF7C6FB40F2B41024
:103E5000C2F200004FF48061FCF792FA0020B880B3
:103E6000387001B0F0BD00BF706C65617365207380
:103E7000657420566F6C746167650D0A0000000060
:103E80005FEA400C08BF91F0000F4FEA8C234FEA25
:103E9000C12243EA51514FEA1C5018BF00F5F040CF
:103EA0004FEA300018BF41F000415FEA6C5C00F05F
:103EB0002980BCF1FF3F08BF40F080407047130CE1
:103EC00006BF12044FF0100C4FF0000C130E04BF8D
:103ED00012020CF1080C130F04BF12010CF1040CB8
:103EE000930F04BF92000CF1020CD30F04BF5200D9
:103EF0000CF1010C11464FF00002A0F11F00A0EBE5
:103F00000C00704711F0004F08BF704731F00041BE
:103F10003FF4D5AF0B0C06BF09044FF0100C4FF067
:103F2000000C0B0E04BF09020CF1080C0B0F04BFB0
:103F300009010CF1040C8B0F04BF89000CF1020C79
:103F4000CB0F04BF49000CF1010CCCF1200322FA85
:103F500003F341EA030102FA0CF2A0EB0C0000F1BA
:103F60000100704723F07F4720F07F4C80EA030078
:103F700000F00040ACEB070303F57C5303F1FF03B3
:103F80002DE9804909B44FEA144324EA03484FEA73
:103F9000154B25EA0B4E0FF2042606EB13273E784D
:103FA00003FB0667C7F5000707FB06F64FEAD64690
:103FB00006F102064FEA543707FB066CCCF1005CB1
:103FC0004FEA1C472CEA074C0CFB06F507FB06F4EE
:103FD00004EB15464FEA961649085FEA320234BFF1
:103FE00000204FF000404FEAD13706FB07FC4FEAB4
:103FF0001C4C0CFB0BF7D21B03FB0CF761EB07010E
:104000000CFB0EF7B0EB074072EB17420CFB08F706
:1040100034BFA2EB0742B2EB074261EB17414FEA14
:104020000C444FEA910706FB07FC4FEA1C4C0CFBC3
:104030000BF7B0EBC74072EB573203FB0CF734BF02
:10404000A2EBC742B2EBC74261EB57310CFB0EF754
:10405000B0EBC70072EB57720CFB08F734BFA2EB52
:10406000C702B2EBC70261EB57714FEA816141EAC7
:1040700092114FEA826242EA90124FEA806004EBAA
:10408000CC04039F4FEAD13706FB07FC4FEA1C4CD8
:104090000CFB0BF7D21B03FB0CF761EB07010CFBCE
:1040A0000EF7B0EB074072EB17420CFB08F734BF7A
:1040B000A2EB0742B2EB074261EB17414FEA8C5586
:1040C00004EB9C244FEA910706FB07FC4FEA1C4CCB
:1040D0000CFB0BF7B0EBC74072EB573203FB0CF74E
:1040E00034BFA2EBC742B2EBC74261EB57310CFBC6
:1040F0000EF7B0EBC70072EB57720CFB08F734BF3A
:10410000A2EBC702B2EBC70261EB57714FEA8161C4
:1041100041EA92114FEA826242EA90124FEA8060CD
:1041200015EB4C2544F100044FEAD13706FB07FCA0
:104130004FEA1C4C0CFB0BF7D21B03FB0CF761EB9B
:1041400007010CFB0EF7B0EB074072EB17420CFBBC
:1041500008F734BFA2EB0742B2EB074261EB17410D
:104160004FEA813141EA92414FEA823242EA90427B
:104170004FEA80304FEA0C7615EB1C1544F1000431
:1041800048EA03434EEA0B484FF0000EB2EB080C2E
:1041900071EB030724BF624639464EEB0E0E4FF01B
:1041A000000B0018524149414BEB0B0BB2EB080CD2
:1041B00071EB03077BF1000B24BF624639464EEBDF
:1041C0000E0E4FF0000B0018524149414BEB0B0B08
:1041D000B2EB080C71EB03077BF1000B24BF6246C6
:1041E00039464EEB0E0E51EA020718BF46F00106A3
:1041F00016EB0E7655F1000254F1000103D5BDE82F
:104200008901BDE80088BDE88901BDE80048B6190C
:10421000524141EB0101A3F10103704780807F7E91
:104220007D7C7B7A7978777676757473727171702C
:104230006F6E6E6D6C6C6B6A6A69686867666665DE
:104240006464636362616160605F5F5E5E5D5D5C6C
:104250005C5B5B5A5A5959585857575656555555DD
:104260005454535352525251515050504F4F4F4E3D
:104270004E4D4D4D4C4C4C4B4B4B4A4A4A4949498B
:1042800048484847474747464646454545444444CD
:104290004443434343424242424141419C46002BF6
:1042A00030D477002BD04FEA37071CB503B44FF05A
:1042B00010004FF01001BAF1000F06D0BCF1000F52
:1042C000DCBF40F0080040F008014FF000000FBCD8
:1042D000BDE810400BF1010BBBF1010F08BF5FEA15
:1042E000170722BF12F1010211F101014FF0004145
:1042F00043F1000300F0004043EA00007047F9D3A7
:104300005708D0E746EA06464FEA164613F1400F33
:104310001FDD13F1200FDFBF16430A4600212033B3
:104320005B42BED0C3F1200746EA06464FEA164676
:1043300002FA07F746EA070622FA03F2C3F120075A
:1043400001FA07F742EA070221FA03F14FF00003EE
:10435000A7E746EA020646EA06464FEA164646EA56
:104360000106BCBF46EA0646360C4FF000034FF08C
:1043700000024FF0000194E72DE9804C70B49A469A
:10438000934691E8380007C831EA400C48BF34EA48
:10439000430C03D5FFF7E6FDFFF780FFF0BCBDE857
:1043A000008C2DE9804C70B49A46934691E8380011
:1043B00007C810F0804F08BF13F0804F03D100F002
:1043C00005F8FFF76BFFF0BCBDE8008C20F07F47DD
:1043D00023F07F4C80EA030000F0004007EB0C0361
:1043E000A3F57C53A3F1FE0392F0000F00F0B3801D
:1043F00095F0000F00F077802DE901494FEA114058
:1044000021EA00484FEA144624EA064700FB06FC6E
:1044100008FB06F607FB08F818EB06484CEB164CB1
:1044200000FB07F718EB07484CEB17404FEA124B1D
:1044300022EA0B4E4FEA154625EA06470BFB06FC1F
:104440000EFB06F607FB0EFE1EEB064E4CEB164C63
:104450000BFB07F71EEB074E4CEB174B18EB0B084B
:1044600040F1000018EB0E0B58EB000840F1000083
:104470008F1A4FF000014FF000063CBFC943661B86
:1044800014BFB5EB040C00213CBFC943F61B4FEA37
:10449000174427EA04454FEA1C472CEA074C04FB63
:1044A000076205FB07F70CFB05F616EB074642EB28
:1044B000174204FB0CFC16EB0C4642EB1C421BEBB8
:1044C000060658EB020241414EEA8E0E46EA9E066F
:1044D00001D5BDE80189B619524141EB0101A3F1B3
:1044E0000103BDE801894FEA144524EA05464FEA75
:1044F000114721EA074C05FB07F406FB07F70CFB05
:1045000006F111EB074144EB174405FB0CFC11EBE2
:104510000C4144EB1C444FEA124722EA074C05FBCE
:1045200007F206FB07F70CFB06F616EB074642EB15
:10453000174205FB0CFC16EB0C4642EB1C456A18B7
:1045400054F1000148BF7047B619524141EB0101D7
:10455000A3F10103704795F0000F37D04FEA1142E5
:1045600021EA02464FEA144724EA074C02FB07F10E
:1045700006FB07F70CFB06F414EB074441EB17416D
:1045800002FB0CFC14EB0C4441EB1C414FEA1547B9
:1045900025EA074C02FB07F506FB07F70CFB06F6BE
:1045A00016EB074645EB174502FB0CFC16EB0C46D9
:1045B00045EB1C42121951F1000148BF7047B61972
:1045C000524141EB0101A3F1010370474FEA144549
:1045D00024EA05464FEA114721EA074C05FB07F19B
:1045E00006FB07F70CFB06F212EB074241EB174103
:1045F00005FB0CFC12EB0C4251EB1C414FF000068A
:1046000048BF7047921841EB0101A3F101037047C5
:10461000490050EAC12018BF04204A0D18BF40F0DD
:10462000010040F2FF72B2EB515F08BF40F00200A0
:10463000012808BF0520704730380A2801D2012020
:10464000704700207047000010B500290AD0087894
:10465000002807D005487844FCF716FA002801D056
:10466000002010BD0248784410BD00006613000011
:104670005E13000010B591EA030F48BF83F00043BA
:1046800000F10484841A71EB030C05D2121943EB78
:104690000C03001B61EB0C014FEA1154A4EB135CFB
:1046A000DFF81CE11EEA430F18BF9EEA445F00F0EA
:1046B000748021EA045123EA0E0343F48013DCF1F1
:1046C000200E32D322FA0CFE10EB0E0023FA0CFE61
:1046D00041EB0E01CCF1200E03FA0EFE10EB0E00A2
:1046E000CCF1200E51F10001B1F5801F32D201EB67
:1046F000045112FA0EF2BDE8104058BF7047401C3A
:1047000038BF5FEA420218BF7047002814BF20F08C
:10471000010041F100014FEA410313F5001F38BFCA
:104720007047A1F1C04100F0A3BB012A43EB030293
:10473000ACF1200CDCF11F0E32BF4FF0000E23FA5B
:104740000CF310EB030041EB0451B4EB115FD0D03C
:10475000A1EB045101F58011490801EB04515FEA16
:1047600030000ED350F1000038BF12FA0EFE08D10F
:10477000BDE81040C9E7401C38BF5FEA4202CAD119
:10478000C3E7BDE810404FEA410313F5001F38BFEF
:104790007047A1F1C04100F06BBB9EEA445F08D0B6
:1047A00011EA5E0FBDE8104004BF01F00041002097
:1047B0007047BDE8104070B500F00CFB64FBBE3ED6
:1047C0000000E0FF491058BFC1F140415B1058BFE5
:1047D000C3F140438B42EFF3008070472DE9C041A5
:1047E00030B4DFF8A8C23CEA111418BF3CEA131435
:1047F00000F0F0801CEA111481EA030544EAD57444
:1048000018BF1CEA131500F0CB80A4EB050404F1DB
:104810007F7404F500344FF0004545EAC12145EAB4
:10482000C32341EA505143EA52534FEAC0204FEAB2
:10483000C222994208BF904200F0A0804FEA13655F
:104840000FF24816765D4FEA134506FB05F7C7F1F0
:10485000807706FB07F74FEAD737A7FB0368764256
:10486000A7FB06CEC8F5803838BFA8F1010807FBC2
:1048700008E6A6FB028C4FF0000EE6FB03CED8F153
:1048800000086FEA0C0C5CF1000C6FEA0E0E4EF1A2
:10489000004EA6FB0C584FF00007E6FB0E87A1FB6D
:1048A00008C6A0FB07CE16EB0E064FF0000545F13B
:1048B0000005E1FB076515F1E04E7EBFA4F58034ED
:1048C0005FEA46066D4116F1800745F100054FEAA3
:1048D000172747EA05674FEA15254FEA0666A6F14E
:1048E000DE46B6F1805F20D9384605EBC47124F06E
:1048F000010C01EB0C11BCF1FE6F02D8F0BCBDE85D
:10490000008124425CBF01F5801E9EEAC47F02D470
:10491000F0BCBDE80081244200F13980A1F1C04122
:10492000F0BCBDE8004100F0A3BA4FEAD02040EA55
:1049300041504FEAD1214FEAD22242EA43524FEA94
:10494000D323A7FB028607FB036605FB02661EEA6C
:104950000E0F58BFA6EB0056B6EB00564FEA520EAC
:104960004EEAC37E18EB0E0E56EB530EBCD518EB79
:1049700002085E417F1C55F10005B5E74FF4801534
:104980004FF000074FF000064FF00008ACE701F1D0
:10499000C04101F000414FF00000F0BCBDE80081D3
:1049A0000CEA131511EA0C1F00D00CE013EA0C1FDF
:1049B00000F025804FF0000081EA030101F0004182
:1049C000F0BCBDE80081F0BCBDE8004181EA030114
:1049D00000F04EBAF0BCBDE8004170B500F0FAF945
:1049E000097EFC3E00F007B84FF0000081EA0301A9
:1049F00001F00041704781EA030100F039BAF0BCD0
:104A0000BDE8004122494FF000007047FFFDFBF96F
:104A1000F7F5F4F2F0EEEDEBE9E8E6E4E3E1E0DEF1
:104A2000DDDBDAD8D7D5D4D3D1D0CFCDCCCBCAC863
:104A3000C7C6C5C4C2C1C0BFBEBDBCBBBAB9B8B78A
:104A4000B6B5B4B3B2B1B0AFAEADACABAAA9A8A87D
:104A5000A7A6A5A4A3A3A2A1A09F9F9E9D9C9C9B4B
:104A60009A999998979796959594939392919190F6
:104A70008F8F8E8E8D8C8C8B8B8A89898888878787
:104A80008685858484838382828181800000FF07FC
:104A90000000F87F51EA030C17D41CF5801F58BFA3
:104AA000BCF5801F00F10680994218BF704708BF0F
:104AB0009042704707D711F5801F58BF13F5801F2C
:104AC00019D499427047894270471CF5801F08D558
:104AD000BCF5801FF7D58B4218BF704708BF8242D4
:104AE00070474FF4001C1CEB410F38BF1CEB430F09
:104AF00001D28B42704770B500F06CF992244900E6
:104B00004FF000514FF08053FFF75CBE4FEA410376
:104B10004FEA5353A3F58063D3F11E03C8BFD3F10B
:104B2000210C0CDD4FF0004242EAC12242EA505211
:104B300032FA03FC8CEAE17CACEBE1707047102B9D
:104B4000C4BF0020704703F5787CBCF1FF3F04D060
:104B50006FF0004282EA2100704770B500F03AF928
:104B60004992248000207047F2E7B0FA80F310FAEF
:104B700003F10AD0C3F11D0303F580634FEA03522A
:104B80004FEA415002EBD12170474FF000007047CF
:104B900051EA030C17D41CF5801F58BFBCF5801FC9
:104BA00000F10680994218BF704708BF90427047D5
:104BB00007D711F5801F58BF13F5801F19D49942EC
:104BC0007047894270471CF5801F08D5BCF5801FCF
:104BD000F7D58B4218BF704708BF824270474FF429
:104BE000001C1CEB410F38BF1CEB430F01D28B4262
:104BF000704770B500F0EEF8922449004FF08051F4
:104C00004FF00053FFF7DEBD51EA030C17D41CF53B
:104C1000801F58BFBCF5801F00F10680994218BF65
:104C2000704708BF9042704707D711F5801F58BFE3
:104C300013F5801F19D499427047894270471CF5BB
:104C4000801F08D5BCF5801FF7D58B4218BF704771
:104C500008BF824270474FF4001C1CEB410F38BF65
:104C60001CEB430F01D28B42704770B500F0B2F8D5
:104C7000922449004FF000514FF08053FFF7A2BD3E
:104C800070B5DFF848C11CEA111E1EBF1CEA1315DF
:104C90009EEA0C0F95EA0C0F00F06F8081EA030486
:104CA0004EEAD47EAE4421EA4C1123EA4C1341F47F
:104CB000801143F48013AEF17F7EA1FB024CA0FB78
:104CC0000365361955EB0C05A1FB034C4CF10003B1
:104CD000A0FB021C16EB0C06654153F100030942D0
:104CE00018BF46F0010613F4007F0BD14FEA0331E1
:104CF0004FEA053041EA155140EA165034036FF08F
:104D000003020AE04FEAC3214FEAC52041EA5551A8
:104D100040EA5650F4026FF0020202EB2E4201EB21
:104D2000025585EACE710AD05FEA440C18BF24F020
:104D3000004450F1000041F1000120EAD47040F23B
:104D4000FE7C624500D270BDA84214BF4FF0804483
:104D50004FF04044002E08BF0024BEF1806FA8BF72
:104D6000A1F1C041BDE8704080F2828001F1C041F4
:104D700001F000414FF0000070470CEA13159EEA65
:104D80000C0F18BF95EA0C0F06D081EA030E4FF006
:104D900000000EF0004170BD00F01CF88900013EDB
:104DA00000F007B800F009B84FEA430C5FEA5C5C1A
:104DB00008D081EA030100F05BB84FEA410C5FEADA
:104DC0005C5CF6D102494FF0000070470000FF071D
:104DD0000000F87F0EF1020E2EF0030E5EF8046B59
:104DE000364205D4012A43EB030515F5001F12D8FE
:104DF000012841EB010C1CF5001F0CD80ED14FEA25
:104E0000D17C0CEB4C0C0CF1020C15F5001F08BF0B
:104E10004CEBD37C04E04FF0080C01E04FEAD37C6C
:104E20000CEB4C0526FA05F606F00706B6F1040C65
:104E300006D20EEB860CBDE870404CF0010C6047CA
:104E4000DFE80CF0090B02024FF00041A1F5002150
:104E50004FF0000070BD19461046012851EB0104C7
:104E600018BFD4F5001484BF002001F0004170BDCC
:104E70000808A0F500114FEA3101704710B591EA1A
:104E8000030F48BF83F000433FF5FCAB841A71EB7E
:104E9000030C07D28CF0004C121943EB0C03001BDF
:104EA00061EB0C014FEA1154A4EB135CDFF8A4E1B1
:104EB0001EEA430F18BF9EEA445F00F0B48021EA67
:104EC000045123EA6E035242C3EB6E0338BF5B1EEC
:104ED000DCF1200E25D322FA0CFE10EB0E0043FA73
:104EE0000CFE41EB0E01CCF1200E03FA0EFE10EB8E
:104EF0000E00CCF1200E51F1000129D401EB045138
:104F000012FA0EF2BDE8104058BF7047401C1CBF9B
:104F1000B2F1004F704700280CBF491C20F001007F
:104F2000704712EB020E43EB030218BF4FF0010E65
:104F30004EEA4202ACF1200CDCF11E0E56D943FAC7
:104F40000CFE10EB0E00CCF11E0E51F1FF31D5D549
:104F50000EF1010E12FA0EFE404141EB010101EB90
:104F6000445C5FEA5C5C10D901EB045110EBDE702D
:104F700038BFBEF1004FBDE8104018BF7047002891
:104F80000CBF491C20F00100704734D24FEAD42CEA
:104F900024F4006411F500111BD0B1FA81F20B3A30
:104FA000A41AA41ED2F12003914030FA03F319434E
:104FB000904001EBCC7101EB0451002CBDE8104096
:104FC000A8BF704701F1C04101F000414FF000005F
:104FD0007047B0FA80F310FA03F102D1BDE8104037
:104FE0007047E41A173C4805C90AE2E701EB04518F
:104FF000BDE81040704749104FEA300001EB045102
:10500000BDE8104002E04FF0000170474A0008BFC1
:105010000042F8D0B2F5001F28BF704701F00041F0
:105020004FF0000070479EEA445F07D011EA5E0F20
:10503000BDE8104004BF002100207047BDE81040CB
:1050400070B5FFF7C7FE00BF40DFF63E104683F0A5
:10505000004170470000E0FF10B5FFF71BFD0CBFDB
:105060000120002010BD10B5FFF714FD14BF012072
:10507000002010BD10B5FFF78BFD8CBF0120002074
:1050800010BD10B5FFF784FD2CBF0120002010BD1E
:1050900010B5FFF7B9FD94BF0120002010BD10B579
:1050A000FFF7B2FD34BF0120002010BDFBF76ABA44
:1050B00002400000000000A00000000005400000C9
:1050C000000000C8000000000C4000000000409CF0
:1050D00000000000194000000020BCBE00000000DD
:1050E00034400000BFC91B8E00000004B540000022
:1050F000504BCFD06607E2CF010000006C410000AA
:105100003E8251AADFEEA73401000000D942000020
:10511000DCB5A0E23A301F97FFFFFFFFB445000067
:10512000FD25A0C8E9A3C14FFFFFFFFFFF3F00001F
:105130000000008000000000FF3F00000000008031
:105140000000000000000000000000000102030455
:105150000607080900000000010203040000000027
:1051600000000000002F00000000070007000014EE
:105170007F147F1400242A7F2A12006264081323FC
:1051800000364955225000000503000000001C2293
:105190004100000041221C000014083E08140008D1
:1051A000083E0808000000A0600000080808080881
:1051B000000060600000002010080402003E514919
:1051C000453E0000427F40000042615149460021B7
:1051D00041454B31001814127F10002745454539D1
:1051E000003C4A494930000171090503003649492C
:1051F000493600064949291E0000363600000000E5
:10520000563600000008142241000014141414142F
:1052100000004122140800020151090600324959D8
:10522000513E007C1211127C007F49494936003EF4
:1052300041414122007F4141221C007F49494941AF
:10524000007F09090901003E4149497A007F0808A9
:10525000087F0000417F4100002040413F01007F66
:1052600008142241007F40404040007F020C027F32
:10527000007F0408107F003E4141413E007F090944
:105280000906003E4151215E007F0919294600466A
:10529000494949310001017F0101003F4040403F41
:1052A000001F2040201F003F4038403F006314088B
:1052B0001463000708700807006151494543000066
:1052C0007F41410000552A552A55000041417F0089
:1052D000000402010204004040404040000001027E
:1052E0000400002054545478007F48444438003867
:1052F0004444442000384444487F003854545418EF
:1053000000087E0901020018A4A4A47C007F080400
:1053100004780000447D4000004080847D00007FD0
:10532000102844000000417F4000007C04180478ED
:10533000007C0804047800384444443800FC2424E9
:1053400024180018242418FC007C080404080048D1
:105350005454542000043F444020003C4040207CF2
:10536000001C2040201C003C4030403C00442810E1
:105370002844001CA0A0A07C004464544C44141495
:1053800014141414000000000000000000000000CD
:1053900000000000000000F80000000000000033E2
:1053A0003000000000100C06100C06000000000089
:1053B0000000000040C07840C0784000043F040472
:1053C0003F040400007088FC08300000001820FF33
:1053D000211E0000F008F000E018000000211C036E
:1053E0001E211E0000F00888700000001E212324EA
:1053F0001927211010160E00000000000000000008
:1054000000000000000000E0180402000000000797
:105410001820400000020418E0000000004020189E
:1054200007000000404080F0804040000202010F71
:1054300001020200000000F0000000000101011F55
:1054400001010100000000000000000080B07000B9
:105450000000000000000000000000000001010149
:1054600001010101000000000000000000303000D8
:1054700000000000000000008060180400601806B2
:105480000100000000E010080810E000000F1020EC
:1054900020100F00001010F8000000000020203F36
:1054A00020200000007008080888700000302824C0
:1054B0002221300000300888884830000018202061
:1054C00020110E000000C02010F800000007042486
:1054D000243F240000F808888808080000192120CB
:1054E00020110E0000E0108888180000000F112025
:1054F00020110E0000380808C83808000000003FDE
:10550000000000000070880808887000001C22213C
:1055100021221C0000E010080810E00000003122E9
:1055200022110F00000000C0C00000000000003089
:1055300030000000000000800000000000008060DB
:10554000000000000000804020100800000102045C
:105550000810200040404040404040000404040443
:1055600004040400000810204080000000201008FF
:1055700004020100007048080808F0000000003034
:1055800036010000C030C828E810E00007182724C2
:1055900023140B000000C038E0000000203C230270
:1055A0000227382008F8888888700000203F2020D3
:1055B00020110E00C0300808080838000718202005
:1055C0002010080008F808080810E000203F2020FC
:1055D00020100F0008F88888E8081000203F2020DD
:1055E0002320180008F88888E8081000203F2000D1
:1055F00003000000C0300808083800000718202009
:10560000221E020008F808000008F808203F2101C7
:1056100001213F20000808F8080800000020203F72
:105620002020000000000808F8080800C0808080E2
:105630007F00000008F888C028180800203F2001DB
:105640002638200008F8080000000000203F202035
:105650002020300008F8F800F8F80800203F003F4C
:10566000003F200008F830C00008F808203F200064
:1056700007183F00E01008080810E0000F10202075
:1056800020100F0008F808080808F000203F21014A
:1056900001010000E01008080810E0000F182424A1
:1056A00038504F0008F8888888887000203F200014
:1056B000030C3020007088080808380000382021CA
:1056C00021221C00180808F8080818000000203FD4
:1056D0002000000008F808000008F808001F20203B
:1056E00020201F000878880000C83808000007380C
:1056F0000E010000F80800F80008F800033C07005D
:10570000073C0300081868808068180820302C03C4
:10571000032C30200838C800C83808000000203F9B
:105720002000000010080808C8380800203826218A
:1057300020201800000000FE020202000000007F8E
:1057400040404000000C30C000000000000000019C
:105750000638C00000020202FE0000000040404087
:105760007F000000000004020202040000000000AC
:105770000000000000000000000000008080808029
:105780008080808000020204000000000000000011
:1057900000000000000080808080000000192422AA
:1057A00022223F2008F8008080000000003F1120E6
:1057B00020110E000000008080800000000E1120EB
:1057C00020201100000000808088F800000E1120C9
:1057D00020103F200000808080800000001F2222D7
:1057E00022221300008080F0888888180020203F43
:1057F000202000000000808080808000006B949456
:105800009493600008F8008080800000203F210011
:1058100000203F2000809898000000000020203FDA
:1058200020200000000000809898000000C08080C8
:10583000807F000008F8000080808000203F240264
:105840002D302000000808F8000000000020203F54
:10585000202000008080808080808000203F200009
:105860003F20003F8080008080800000203F21009A
:1058700000203F200000808080800000001F20204A
:1058800020201F00808000808000000080FFA12079
:1058900020110E000000008080808000000E11208A
:1058A00020A0FF80808080008080800020203F2119
:1058B00020000100000080808080800000332424CC
:1058C00024241900008080E0808000000000001F78
:1058D000202000008080000000808000001F202029
:1058E00020103F20808080000080808000010E30EA
:1058F0000806010080800080008080800F300C034B
:105900000C300F0000808000808080000020312E4D
:105910000E312000808080000080808080818E7029
:105920001806010000808080808080000021302CDB
:105930002221300000000000807C020200000000F4
:10594000003F40400002027C800000000040403FD9
:105950000000000000000000FF0000000000000048
:10596000FF000000010202030405060708090A0BF4
:105970000C0D0E0F10100000537563636573736692
:10598000756C6C79205365740D0A0000202020206E
:10599000202020202020202020200000D85900088E
:1059A000000000203800000050010008105A0008D4
:1059B00038000020800B0000700100081C0000006F
:1059C00043000000F8FFFFFF0C0000000E00000085
:1059D0000F0000002E000000010000001000000079
:1059E0000100F4010000000000000000000014406D
:1059F000AE001040B081FFA1A6A83FC8D300D5805B
:105A0000D805D9F1DA12D8308D14AF0000127A001F
:04000005080000ED02
:00000001FF
